:0F06F40025730A00313233343536373839300048
:0307590001080094
:0F05A7008F807F057E001205B6D2A67F057E00ED
:1005B600D3EF9400EE940040147D6E7C00ED1D7028
:0D05C600011CED4C70F7EF1F70E61E80E386
:0105D3002205
:08074300C2A51205A7C2A622FF
:08074B00D2A51205A7C2A622E7
:0F06E500EF70047F8080027FC0EF2DFF0207437C
:0A071100C2A61206E5AF0302074B73
:1006BD00C2A67F381207437F0C1207437F0612072D
:0606CD00437F0102074318
:10049C007590FEAF90EF2482601524C0600E24E0AE
:1004AC00600724F0700C7F31227F32227F33227F51
:1004BC0041227590FDAF90EF2483601524C0600E2F
:1004CC0024E0600724F0700C7F34227F35227F36C5
:1004DC00227F42227590FBAF90EF2485601524C0DB
:1004EC00600E24E0600724F0700C7F37227F3822E6
:1004FC007F39227F43227590F7AF90EF24896015E6
:10050C0024C0600E24E0600724F0700C7F2A227F48
:0B051C0030227F23227F44227F212217
:1006A500758920758DFD758BFDD29CD28EC29FD22A
:0806B5009ED2AFD2ACD2992213
:09071B007F147809E4F608DFFC04
:0107240022B2
:03002300020527AC
:10052700C0E0C0F0C083C082C0D075D000C000C09A
:0D05370001C002C003C004C005C006C0071B
:10054400AF997E0030983CC298E509642860037531
:100554000800AD0774092508F8A6058F9912074B02
:100564007525007526007527097BFF7A0679F41234
:10057400008874092508F8E6B4290612071B759942
:08058400410508309902C299FB
:10058C00D007D006D005D004D003D002D001D000C3
:0B059C00D0D0D082D083D0F0D0E0326D
:05075300120758D2A1BD
:01075800227E
:0A072500D2A0120753C2A002075829
:0A072F00C2A0120753D2A00207581F
:0600030012072512066D34
:10000900D2A112075830A00BE536C394FA50040563
:080019003680F2C2A102075873
:0A073900D2A0120758D2A1020758FF
:10066D00E4FEEF25E0FFC2A112075892A012075336
:0E067D000EBE08EEC2A1120758D2A002075806
:10064800C2A1120758D2A0120758E4FED2A112077D
:1006580058EF25E0FDA2A0E4334DFFC2A1120758D0
:040668000EBE08E8D2
:01066C00226B
:0D070300EFD3940040077E64DEFE1F80F3FC
:0107100022C6
:10068B00AE07AC03120003AF0512066D120009AFE3
:0A069B000412066D12000902072F79
:0705D4007F641207037FA002
:0205DB00AC076B
:1005DD00120003AF0512066D120009120725EC0477
:0D05ED00FF12066D12000912064812072FBA
:0105FA0022DE
:1006D3001207397BAB7D177FA012068B1205D48FCF
:0206E300902263
:100622001206BD1207397F641207037B017D177F13
:10063200A012068B1205D48F90EF2430FB7D037F2E
:060642000112071180FE09
:03000000020410E7
:0C041000787FE4F6D8FD758136020457B1
:10002600E5312425F8E605312278223007027825C5
:10003600E475F0011203DA0203822000EB7F2ED270
:10004600008018EF540F2490D43440D4FF30040BB2
:10005600EF24BFB41A0050032461FFE53260021595
:10006600320535E5357002053430070D7822E47522
:10007600F0011203DAEF0203C80205FB7403D2078C
:100086008003E4C207F5318B228A238924E4F53202
:10009600F534F535E53260077F2012006180F5758D
:1000A60033FFC201C200C202C203C205C206C208B1
:1000B60012002FFF700D3007057F00120072AF355A
:1000C600AE3422B4255FC2D5C20412002FFF24D05D
:1000D600B40A00501A75F00A783230D50508B6FF12
:1000E6000106C6A426F620D5047002D20380D924C0
:1000F600CFB41A00EF5004C2E5D204020272D20154
:1001060080C6D20080C0D20280BCD2D580BAD205C9
:1001160080B47F201200612002077401B5320040CE
:10012600F1120026FF12006102009AD208D2068060
:1001360095120026FB120026FA120026F94A4B7089
:100146000679437A037BFF20022EE532602A7E0081
:100156008E8275830012039B60060EEE653370F087
:10016600C2D5EBC0E0EAC0E0E9C0E0EE1202B9D0C9
:10017600E0F9D0E0FAD0E0FB120382FF60AAEBC000
:10018600E0EAC0E0E9C0E0120061D0E02401F9D065
:10019600E03400FAD0E0FBE5330460DCD533D980E7
:1001A600877BFF7A0279B5D202809C79108002792A
:1001B60008C206C2088008D2D5790A8004790AC224
:1001C600D5E533047002F533E4FAFDFEFF1200268E
:1001D600FC7B08200113120026FD7B1030000A125A
:1001E6000026FE120026FF7B20EC3382D592D550E6
:1001F60013C3E43000069FFFE49EFEE42001039D46
:10020600FDE49CFCE4CBF8C201EC700CCFCECDCC67
:10021600E824F8F870F38017C3EF33FFEE33FEEDF2
:1002260033FDEC33FCEB33FB994002FB0FD8E9EBD3
:10023600300105F8D0E0C448B201C0E00AEC4D4EEA
:100246004F78207B0070C2EAB5330040BCC0E01294
:1002560002BBD0F0D0E0200104C4C0E0C4B201C0AB
:10026600F012004AD0F0D5F0EB02009A1203EA0130
:10027600375301B15801084C01044201B54F01BD85
:0F0286004401BD49011D4301C35501A74601A70E
:100295004501A747036350010C2D01102E01332B97
:1002A500011423013120034C2A00CC480000012B06
:1002B5003F3F3F00790AA2D5200314300509B91044
:1002C500020404B9080104A2D52006025001042045
:1002D50002689202B532005034C0E07F2030031925
:1002E5007F30A20272067205500F120312C202C2BB
:1002F50006C205C2087F30800F300503E9C0E01251
:100305000061300503D0E0F9D0E0B532CC300517F7
:100315007F30B9100C1200617F583004077F788058
:1003250003B908031200613002057F2D0200617FC9
:10033500202008F87F2B2006F322920280CF286E1A
:10034500756C6C2900D2011200263001F8C20178C3
:100355003230D50108F60200CC2D50434958120021
:10036500262403B405004001E490035E9312005275
:0D037500743A120052D2037532040201B135
:10041C00020622E493A3F8E493A34003F68001F2CE
:10042C0008DFF48029E493A3F85407240CC8C333E1
:10043C00C4540F4420C8834004F456800146F6DFB0
:10044C00E4800B0102040810204080900759E47EE0
:10045C00019360BCA3FF543F30E509541FFEE493A5
:10046C00A360010ECF54C025E060A840B8E493A36C
:10047C00FAE493A3F8E493A3C8C582C8CAC583CA97
:10048C00F0A3C8C582C8CAC583CADFE9DEE780BE4F
:01075C00009C
:10038200BB010689828A83E0225002E722BBFE0279
:09039200E32289828A83E49322AC
:10039B00BB010CE58229F582E5833AF583E0225017
:1003AB0006E92582F8E622BBFE06E92582F8E22261
:0D03BB00E58229F582E5833AF583E493227B
:1003C800BB010689828A83F0225002F722BBFE0114
:0203D800F3220E
:1003DA00FAE6FB0808E6F925F0F618E6CA3AF62224
:1003EA00D083D082F8E4937012740193700DA3A3A2
:1003FA0093F8740193F5828883E4737402936860B6
:06040A00EFA3A3A380DFB5
:1005FB00EFB40A07740D120606740A309811A89905
:10060B00B8130CC2983098FDA899C298B811F6305F
:07061B0099FDC299F5992237
:00000001FF
