:0B008100313233343536373839300067
:0B0030008F807F0512003BD2B47F05DB
:10003B007E00D3EF9400EE940040147D6E7C00EDB7
:0F004B001D70011CED4C70F7EF1F70E61E80E377
:01005A002283
:08008C00C2B5120030C2B4221B
:08009400D2B5120030C2B42203
:10005B00C2A6C2A7C2B47F3812008C7F0C12008CD0
:0A006B007F0612008C7F0102008C5A
:1000030012005B7F8012008CE4FBFA74812BF58273
:1000130074003AF583E493FF1200947F0512003BCA
:0D0023000BBB00010AEB64054A70E080FE93
:0300000002007586
:0C007500787FE4F6D8FD758107020003D7
:00000001FF
