:0B010A003132333435363738393000DD
:0B008E008F807F05120099D2B47F051F
:100099007E00D3EF9400EE940040147D6E7C00ED59
:0F00A9001D70011CED4C70F7EF1F70E61E80E319
:0100B8002225
:08011500C2B512008EC2B42233
:08011D00D2B512008EC2B4221B
:1000E400C2A6C2A7C2B47F381201157F0C12011533
:0A00F4007F061201157F01020115BD
:100003007590FEAF90EF2482601524C0600E24E04B
:10001300600724F0700C7F44227F43227F42227FBB
:1000230041227590FDAF90EF2483601524C0600ECC
:1000330024E0600724F0700C7F23227F39227F366F
:10004300227F33227590FBAF90EF2485601524C087
:10005300600E24E0600724F0700C7F30227F38228A
:100063007F35227F32227590F7AF90EF2489601598
:1000730024C0600E24E0600724F0700C7F2A227FE6
:0B00830037227F34227F31227F2122B0
:1000B900E4FBFA1200E47F801201157F2112011D71
:1000C9001200037A00AB07EB642160F41200E4AF7D
:0B00D9000312011D7F8812009980E5D2
:030000000200FEFD
:0C00FE00787FE4F6D8FD7581070200B998
:00000001FF
